:020000040800F2
:100000000804002081020008E1020008E102000863
:10001000E1020008E1020008E1020008000000001F
:10002000000000000000000000000000E1020008E5
:10003000E102000800000000E1020008E1020008FF
:10004000E1020008E1020008E1020008E102000804
:10005000E1020008E1020008E1020008E1020008F4
:10006000E1020008E1020008E1020008E1020008E4
:10007000E1020008E1020008E1020008E1020008D4
:10008000E1020008E1020008E1020008E1020008C4
:10009000E1020008E1020008E1020008E1020008B4
:1000A000E1020008E1020008E1020008E1020008A4
:1000B000E1020008E1020008E1020008E102000894
:1000C000E1020008E1020008E1020008E102000884
:1000D000E1020008E1020008E1020008E102000874
:1000E000E1020008E1020008E1020008000000004F
:1000F0000000000000000000000000000000000000
:1001000000000000000000005FF808F180B500AFBB
:10011000154B154A126842F001021A60124A124B3E
:100120005968124B0B4053600F4A0F4B1B6823F06A
:10013000847323F4803313600B4B0B4A126822F450
:1001400080221A60084B084A526822F4FE025A6064
:10015000054B4FF41F029A6000F00CF8044B4FF06F
:1001600000629A6080BD00BF001002400000FFF8EE
:1001700000ED00E080B500AF00F002F880BD00BFE8
:1001800080B483B000AF00237B6000233B603A4B18
:10019000394A126842F480321A60374B1B6803F404
:1001A00000333B607B6801337B603B68002B03D1ED
:1001B0007B68B3F5A06FF0D12F4B1B6803F40033BD
:1001C000002B02D001233B6001E000233B603B6831
:1001D000012B4BD1294B294A126842F010021A60B8
:1001E000264B264A126822F003021A60234B234A48
:1001F000126842F002021A601F4B1F4A52685A608E
:100200001D4B1D4A52685A601B4B1B4A526842F4F0
:1002100080625A60184B184A526822F47C125A6065
:10022000154B154A526842F4E8125A60124B124AB2
:10023000126842F080721A6000BF0F4B1B6803F017
:100240000073002BF9D00C4B0B4A526822F00302CA
:100250005A60094B084A526842F002025A6000BFD5
:10026000054B5B6803F00C03082BF9D10C37BD4636
:100270005DF8047B704700BF001002400020024080
:1002800080B582B000AF114B7B60114B3B6007E043
:100290003B681A1D3A607A68111D796012681A600D
:1002A0003A680C4B9A42F3D30B480C494FF00002CA
:1002B0008842B8BF40F8042BFFF6FAAFFFF726FFDD
:1002C00000F036F90837BD4680BD00BF8405000840
:1002D0000000002004000020040000200400002092
:1002E00080B400AFFEE700BF80B489B000AF786093
:1002F00039600023FB6100233B610023BB610023C5
:10030000FB6000237B610023BB603B68DB7803F06C
:100310000F03FB613B68DB7803F01003002B04D074
:100320003B689B78FA691343FB613B681B88DBB22F
:10033000002B44D07B681B687B610023BB6138E0E5
:10034000BB69012202FA03F3FB603B681B881A4673
:10035000FB6813403B613A69FB689A4226D1BB694E
:100360009B00FB60FB680F2202FA03F3BB60BB68D3
:10037000DB437A6913407B61FB68FA6902FA03F395
:100380007A6913437B613B68DB78282B05D1BB6915
:1003900001229A407B685A6108E03B68DB78482B71
:1003A00004D1BB6901229A407B681A61BB690133A1
:1003B000BB61BB69072BC3D97B687A691A603B684C
:1003C0001B88FF2B46D97B685B687B610023BB6180
:1003D0003AE0BB690833012202FA03F3FB603B6891
:1003E0001B881A46FB6813403B613A69FB689A42D6
:1003F00027D1BB699B00FB60FB680F2202FA03F365
:10040000BB60BB68DB437A6913407B61FB68FA69B8
:1004100002FA03F37A6913437B613B68DB78282B8C
:1004200005D1BB69083301229A407B685A613B6859
:10043000DB78482B05D1BB69083301229A407B68E1
:100440001A61BB690133BB61BB69072BC1D97B68EA
:100450007A695A602437BD465DF8047B704700BF57
:1004600080B483B000AF786013460A467A807B7010
:100470007B78002B03D07A887B681A6102E07A8847
:100480007B685A610C37BD465DF8047B704700BF3E
:1004900080B485B000AF786008E041F29553FB600E
:1004A00000BFFB685A1EFA60002BFAD17B685A1E07
:1004B0007A60002BF1D11437BD465DF8047B70479C
:1004C00080B582B000AF0420012100F03DF8102378
:1004D000FB710123BB800323BB713B1D03481946FD
:1004E000FFF702FF0837BD4680BD00BF000801408E
:1004F00080B500AF0C4B1B78DBB2C3F10103DBB25C
:10050000DAB2094B1A70084B1B785BB2012B05D18C
:10051000064801210122FFF7A3FF04E0034801215F
:100520000022FFF79DFF80BD000000200008014071
:1005300080B500AFFFF7C4FFFFF7DAFF4FF47A7022
:10054000FFF7A6FFF8E700BF80B483B000AF786084
:100550000B46FB70FB78002B06D0094B084A9169CB
:100560007A680A439A6106E0054B054A91697A6800
:10057000D2430A409A610C37BD465DF8047B704750
:040580000010024025
:040584000100000072
:0400000508000000EF
:00000001FF
