:020000040800F2
:100000000804002081020008E1020008E102000863
:10001000E1020008E1020008E1020008000000001F
:10002000000000000000000000000000E1020008E5
:10003000E102000800000000E1020008E1020008FF
:10004000E1020008E1020008E1020008E102000804
:10005000E1020008E1020008E1020008E1020008F4
:10006000E1020008E1020008E1020008E1020008E4
:10007000E1020008E1020008E1020008E1020008D4
:10008000E1020008E1020008E1020008E1020008C4
:10009000E1020008E1020008E1020008E1020008B4
:1000A000E1020008E1020008E1020008E1020008A4
:1000B000E1020008E1020008E1020008E102000894
:1000C000E1020008E1020008E1020008E102000884
:1000D000E1020008E1020008E1020008E102000874
:1000E000E1020008E1020008E1020008000000004F
:1000F0000000000000000000000000000000000000
:1001000000000000000000005FF808F180B500AFBB
:10011000154B154A126842F001021A60124A124B3E
:100120005968124B0B4053600F4A0F4B1B6823F06A
:10013000847323F4803313600B4B0B4A126822F450
:1001400080221A60084B084A526822F4FE025A6064
:10015000054B4FF41F029A6000F00CF8044B4FF06F
:1001600000629A6080BD00BF001002400000FFF8EE
:1001700000ED00E080B500AF00F002F880BD00BFE8
:1001800080B483B000AF00237B6000233B603A4B18
:10019000394A126842F480321A60374B1B6803F404
:1001A00000333B607B6801337B603B68002B03D1ED
:1001B0007B68B3F5A06FF0D12F4B1B6803F40033BD
:1001C000002B02D001233B6001E000233B603B6831
:1001D000012B4BD1294B294A126842F010021A60B8
:1001E000264B264A126822F003021A60234B234A48
:1001F000126842F002021A601F4B1F4A52685A608E
:100200001D4B1D4A52685A601B4B1B4A526842F4F0
:1002100080625A60184B184A526822F47C125A6065
:10022000154B154A526842F4E8125A60124B124AB2
:10023000126842F080721A6000BF0F4B1B6803F017
:100240000073002BF9D00C4B0B4A526822F00302CA
:100250005A60094B084A526842F002025A6000BFD5
:10026000054B5B6803F00C03082BF9D10C37BD4636
:100270005DF8047B704700BF001002400020024080
:1002800080B582B000AF114B7B60114B3B6007E043
:100290003B681A1D3A607A68111D796012681A600D
:1002A0003A680C4B9A42F3D30B480C494FF00002CA
:1002B0008842B8BF40F8042BFFF6FAAFFFF726FFDD
:1002C00000F018F90837BD4680BD00BFBC08000823
:1002D000000000200000002000000020040000209A
:1002E00080B400AFFEE700BF80B489B000AF786093
:1002F00039600023FB6100233B610023BB610023C5
:10030000FB6000237B610023BB603B68DB7803F06C
:100310000F03FB613B68DB7803F01003002B04D074
:100320003B689B78FA691343FB613B681B88DBB22F
:10033000002B44D07B681B687B610023BB6138E0E5
:10034000BB69012202FA03F3FB603B681B881A4673
:10035000FB6813403B613A69FB689A4226D1BB694E
:100360009B00FB60FB680F2202FA03F3BB60BB68D3
:10037000DB437A6913407B61FB68FA6902FA03F395
:100380007A6913437B613B68DB78282B05D1BB6915
:1003900001229A407B685A6108E03B68DB78482B71
:1003A00004D1BB6901229A407B681A61BB690133A1
:1003B000BB61BB69072BC3D97B687A691A603B684C
:1003C0001B88FF2B46D97B685B687B610023BB6180
:1003D0003AE0BB690833012202FA03F3FB603B6891
:1003E0001B881A46FB6813403B613A69FB689A42D6
:1003F00027D1BB699B00FB60FB680F2202FA03F365
:10040000BB60BB68DB437A6913407B61FB68FA69B8
:1004100002FA03F37A6913437B613B68DB78282B8C
:1004200005D1BB69083301229A407B685A613B6859
:10043000DB78482B05D1BB69083301229A407B68E1
:100440001A61BB690133BB61BB69072BC1D97B68EA
:100450007A695A602437BD465DF8047B704700BF57
:1004600080B586B000AF4FF40170012100F05EF856
:100470000023FB750123BB8207F114031B481946B7
:10048000FFF732FF00237B710023FB604FF46023F2
:10049000BB604FF4A0233B6001233B7400233B71FE
:1004A0003B461348194600F05FF81148002101222D
:1004B000072300F017F90E48012100F0A7F80C48B7
:1004C00000F0C0F800BF0A4800F0CCF80346002B4B
:1004D000F9D1074800F0DEF800BF054800F0EAF85F
:1004E0000346002BF9D11837BD4680BD00080140F6
:1004F0000024014080B500AFFFF7B2FF0948012199
:1005000000F084F800BF0748022100F0BDF903465F
:10051000002BF8D0034800F0A9F903461A46024B15
:100520001A80EBE7002401400000002080B483B073
:1005300000AF78600B46FB70FB78002B06D0094BB0
:10054000084A91697A680A439A6106E0054B054AB0
:1005500091697A68D2430A409A610C37BD465DF8CA
:10056000047B70470010024080B485B000AF786013
:1005700039600023FB600023FB727B685B68FB60D3
:10058000FB6823F4702323F48073FB603B681A68D4
:100590003B681B791B021343FA681343FB607B68BB
:1005A000FA685A607B689B68FB60FA68164B1340D8
:1005B000FB603B68DA683B689B681A433B685B7981
:1005C0005B001343FA681343FB607B68FA689A6028
:1005D0007B68DB6AFB60FB6823F47003FB603B68AD
:1005E0001B7C013BDAB2FB7A1343FB72FB7A1B05DF
:1005F000FA681343FB607B68FA68DA621437BD4619
:100600005DF8047B704700BFFDF7F1FF80B483B055
:1006100000AF78600B46FB70FB78002B06D07B6840
:100620009B6843F001027B689A6005E07B689B68E9
:1006300023F001027B689A600C37BD465DF8047BAD
:10064000704700BF80B483B000AF78607B689B6860
:1006500043F008027B689A600C37BD465DF8047B66
:10066000704700BF80B485B000AF78600023FB7393
:100670007B689B6803F00803002B02D00123FB7307
:1006800001E00023FB73FB7B18461437BD465DF881
:10069000047B704780B483B000AF78607B689B6850
:1006A00043F004027B689A600C37BD465DF8047B1A
:1006B000704700BF80B485B000AF78600023FB7343
:1006C0007B689B6803F00403002B02D00123FB73BB
:1006D00001E00023FB73FB7B18461437BD465DF831
:1006E000047B704780B485B000AF7860F970BA7051
:1006F0007B700023FB600023BB60FB78092B23D9B0
:100700007B68DB68FB60FB78A3F10A0213465B00A1
:100710001344072202FA03F3BB60BB68DB43FA68A9
:100720001340FB607978FB78A3F10A0213465B0063
:10073000134401FA03F3BB60FA68BB681343FB6020
:100740007B68FA68DA601EE07B681B69FB60FA78F8
:1007500013465B001344072202FA03F3BB60BB6835
:10076000DB43FA681340FB607978FA7813465B0044
:10077000134401FA03F3BB60FA68BB681343FB60E0
:100780007B68FA681A61BB78062B21D87B685B6BA3
:10079000FB60BB785A1E13469B0013441F2202FACB
:1007A00003F3BB60BB68DB43FA681340FB60F97876
:1007B000BB785A1E13469B00134401FA03F3BB6037
:1007C000FA68BB681343FB607B68FA685A6347E0CA
:1007D000BB780C2B21D87B681B6BFB60BB78DA1FC6
:1007E00013469B0013441F2202FA03F3BB60BB684D
:1007F000DB43FA681340FB60F978BB78DA1F1346D5
:100800009B00134401FA03F3BB60FA68BB6813430F
:10081000FB607B68FA681A6322E07B68DB6AFB6036
:10082000BB78A3F10D0213469B0013441F2202FA6A
:1008300003F3BB60BB68DB43FA681340FB60F978E5
:10084000BB78A3F10D0213469B00134401FA03F396
:10085000BB60FA68BB681343FB607B68FA68DA62C6
:100860001437BD465DF8047B704700BF80B483B089
:1008700000AF78607B68DB6C9BB218460C37BD46D6
:100880005DF8047B704700BF80B485B000AF78602E
:100890000B46FB700023FB737B681A68FB781340E0
:1008A000002B02D00123FB7301E00023FB73FB7BD1
:0C08B00018461437BD465DF8047B704705
:0400000508000000EF
:00000001FF
